:10078B00091D173B3700000A000000030E160C1F53
:10079B00011100012600011B0001170001190001C6
:0207AB001C0030
:10001E001207DF1207F61206DF8F12E51DB520114B
:10002E00E51EB5210CE51FB522077F2C7E011207B8
:10003E00BDE512B4010B0511E51175F0068485F0CE
:10004E0011E5117059E51D75F00A84FD7F01120648
:10005E0072E51D75F00A84ADF07F02120672E51E80
:10006E0075F00A84FD7F03120672E51E75F00A8490
:10007E00ADF07F04120672E51F75F00A84FD7F0550
:10008E00120672E51F75F00A84ADF07F0612067235
:10009E007D0A7F071206727D0A7F08120672E51C22
:1000AE00B401050510E4F51CE51164016009E511C4
:1000BE0064026003020257E5126403703CE5117599
:1000CE00F003A4241A2517F806E51175F003A424ED
:1000DE001AF8E675F01884A6F0E51175F003A4245D
:1000EE001BF8E675F03C84A6F0E51175F003A42428
:1000FE001CF8E675F03C84A6F0E51264047039E550
:10010E001175F003A4241A2517F816E51175F003DE
:10011E00A4241AF8E6B4FF027617E51175F003A4CD
:10012E00241BF8E6B4FF02763BE51175F003A42418
:10013E001CF8E6B4FF02763BE51BB40116E5172565
:10014E00E004FF7D0C120672E51725E02402FF7D08
:10015E000C8033E51175F003A4241A2517F8E67503
:10016E00F00A84FDE51725E004FF120672E511750D
:10017E00F003A4241A2517F8E675F00A84ADF0E50D
:10018E001725E02402FF120672E512B4020B0517C2
:10019E00E51775F0038485F017E5177014751801CF
:1001AE00751A0275130375140475150575160680F8
:1001BE0030E517B40114751802E4F51A75130575B8
:1001CE0014067515017516028017E517B40212E4B0
:1001DE00F518751A01751301751402751503751648
:1001EE0004E51175F003A4241A2518F8E675F00A33
:1001FE0084FDAF13120672E51175F003A4241A25BF
:10020E0018F8E675F00A84ADF0AF14120672E51117
:10021E0075F003A4241A251AF8E675F00A84FDAFCA
:10022E0015120672E51175F003A4241A251AF8E6C4
:10023E0075F00A84ADF0AF161206727D0A7F0712B2
:10024E0006727D0A7F08120672E5116403600302CE
:10025E00032C7D0B7F071206727D0B7F0812067230
:10026E00E51175F003A4241AF8E675F00A84FD7FF3
:10027E0001120672E51175F003A4241AF8E675F062
:10028E000A84ADF07F02120672E51175F003A42404
:10029E001BF8E675F00A84FD7F03120672E51175F0
:1002AE00F003A4241BF8E675F00A84ADF07F041267
:1002BE000672E51175F003A4241CF8E675F00A84A5
:1002CE00FD7F05120672E51175F003A4241CF8E6F5
:1002DE0075F00A84ADF07F06120672E512B40306BD
:1002EE00E5267002D28EE512B40405C28E75260183
:1002FE00E51264037028E526B40123E51175F003B9
:10030E00A4241CF8E4F6E51175F003A4241BF8E40C
:10031E00F6E51175F003A4241AF8E4F6F526E511B6
:10032E0064047059E50E75F00A84FD7F01120672A1
:10033E00E50E75F00A84ADF07F02120672E50F75B8
:10034E00F00A84FD7F03120672E50F75F00A84AD84
:10035E00F07F04120672E51075F00A84FD7F051217
:10036E000672E51075F00A84ADF07F061206727DF6
:10037E000A7F071206727D0A7F08120672E5116463
:10038E00056003020497E512B4020B0519E5197511
:10039E00F0038485F019E51BB40116E51925E00478
:1003AE00FF7D0C120672E51925E02402FF7D0C80FC
:1003BE0027E51925E004FF740E2519F8E675F00AF5
:1003CE0084FD120672E51925E02402FF740E25192C
:1003DE00F8E675F00A84ADF0120672E51970147520
:1003EE001801751A02751303751404751505751623
:1003FE00068030E519B40114751802E4F51A751368
:10040E00057514067515017516028017E519B402E7
:10041E0012E4F518751A017513017514027515039A
:10042E00751604740E2518F8E675F00A84FDAF13E0
:10043E00120672740E2518F8E675F00A84ADF0AF48
:10044E0014120672740E251AF8E675F00A84FDAFC2
:10045E0015120672740E251AF8E675F00A84ADF0C0
:10046E00AF161206727D0A7F071206727D0A7F088A
:10047E00120672E512B40306740E2519F806E5127B
:10048E00B40406740E2519F816E50EC39400500335
:10049E00750E63E50FC394015003750F0CE50FD372
:1004AE00940C4005750F01050EE50F64016023E500
:1004BE000F6403601DE50F64056017E50F640760A8
:1004CE0011E50F6408600BE50F640A6005E50FB4D3
:1004DE000C16E510C39401500375101FE510D3944C
:1004EE001F50030200248050E50F64046011E50FD5
:1004FE006406600BE50F64096005E50FB40B16E5A5
:10050E0010C39401500375101EE510D3941E5003B2
:10051E000200248023E50F64026003020024E50E2E
:10052E005403701CE510C39401500375101DE510A3
:10053E00D3941D5003020024751001050F020024F0
:10054E00E510C39401500375101CE510D3941C5094
:0C055E0003020024751001050F020024A8
:03000B000205F6F5
:0905F600C0E0C0D075D000C007C0
:1005FF00758A18758CFC0509E50970020508050B4D
:10060F00E50B7002050AC394F4E50A9401401275D4
:10061F000A00750B00E51B70047F0180027F008FBD
:10062F001BC3E50994E8E50894034030750800758D
:10063F000900051FE51F943C4022751F00051EE5AC
:10064F001E943C4017751E00051DE51D9418400CA7
:0C065F00751D00E51164056003751C01A9
:07066B00D007D0D0D0E0322F
:03001B0002074099
:06074000C0E0C0F0C0D0D3
:10074600758DD8758BEF050DE50D7002050CC394FC
:1007560001E50C94004027750C00750D000525E594
:1007660025946440197525000524E524943C400E23
:0E0776007524000523E52375F03C8485F023EF
:07078400D0D0D0F0D0E0322C
:10080D00EF1FAC0670011E4C600A7D027CEFDCFE12
:04081D00DDFC80EC92
:0108210022B4
:0F07AD000D273F065B4F666D7D077F6F40800015
:10067200EF14B40800505490068775F003A4C583A4
:1006820025F0C5837302069F0206A30206AB02068B
:10069200AF0206BF0206C70206A70206B7D2A480AF
:1006A2000ED2A48012D2A48016D2A4801AC2A4D2DE
:1006B200A3D2A28016C2A4D2A3C2A2800EC2A4C296
:1006C200A3D2A28006C2A4C2A3C2A274272DF8E6B6
:0D06D200F5807F017E0012080DE4F5802206
:1007DF005389F0438901758A18758CFCC28DD28CB0
:0707EF00D2A9D2AFC2B9226A
:1006DF00E4F53420B1137F14FE12080D30B1FD7F05
:1006EF00147E0012080D75340120B0147F147E00A3
:1006FF0012080D30B0FD7F147E0012080D75340204
:10070F0020B2147F147E0012080D30B2FD7F147ECC
:10071F000012080D75340320B3147F147E001208E5
:10072F000D30B3FD7F147E0012080D753404AF3405
:01073F002297
:05000300007FF7DFFEA5
:0100080022D5
:0407BD00AD07AC06D2
:1007C100E4FBFAED25E0FFEC33FEC3EB9FEA9E501C
:0D07D1000CB2951200030BBB00010A80E67C
:0107DE0022F8
:1007F60053890F438910758BEF758DD8C28FC28EC2
:07080600D2ABD2AFC2BB224E
:0300000002056A8C
:0C056A00787FE4F6D8FD7581340205B1FD
:1005760002001EE493A3F8E493A34003F68001F27D
:1005860008DFF48029E493A3F85407240CC8C33386
:10059600C4540F4420C8834004F456800146F6DF55
:1005A600E4800B010204081020408090078BE47E53
:1005B600019360BCA3FF543F30E509541FFEE4934A
:1005C600A360010ECF54C025E060A840B8E493A311
:1005D600FAE493A3F8E493A3C8C582C8CAC583CA3C
:1005E600F0A3C8C582C8CAC583CADFE9DEE780BEF4
:0107BC00003C
:00000001FF
